{
  "_format": "hh-sol-artifact-1",
  "contractName": "Tweets",
  "sourceName": "contracts/Tweets.sol",
  "abi": [
    {
      "anonymous": false,
      "inputs": [
        {
          "components": [
            {
              "internalType": "address payable",
              "name": "author",
              "type": "address"
            },
            {
              "internalType": "string",
              "name": "content",
              "type": "string"
            },
            {
              "internalType": "uint64",
              "name": "timestamp",
              "type": "uint64"
            }
          ],
          "indexed": false,
          "internalType": "struct Tweets.Tweet",
          "name": "newTweet",
          "type": "tuple"
        }
      ],
      "name": "NewTweet",
      "type": "event"
    },
    {
      "inputs": [
        {
          "internalType": "address payable",
          "name": "author",
          "type": "address"
        },
        {
          "internalType": "string",
          "name": "content",
          "type": "string"
        },
        {
          "internalType": "uint64",
          "name": "timestamp",
          "type": "uint64"
        }
      ],
      "name": "addTweet",
      "outputs": [],
      "stateMutability": "nonpayable",
      "type": "function"
    },
    {
      "inputs": [],
      "name": "getTweets",
      "outputs": [
        {
          "components": [
            {
              "internalType": "address payable",
              "name": "author",
              "type": "address"
            },
            {
              "internalType": "string",
              "name": "content",
              "type": "string"
            },
            {
              "internalType": "uint64",
              "name": "timestamp",
              "type": "uint64"
            }
          ],
          "internalType": "struct Tweets.Tweet[]",
          "name": "",
          "type": "tuple[]"
        }
      ],
      "stateMutability": "view",
      "type": "function"
    }
  ],
  "bytecode": "0x608060405234801561001057600080fd5b50610c27806100206000396000f3fe608060405234801561001057600080fd5b50600436106100365760003560e01c8063fb6e44371461003b578063fc86741f14610057575b600080fd5b61005560048036038101906100509190610719565b610075565b005b61005f610222565b60405161006c9190610940565b60405180910390f35b60405180606001604052808473ffffffffffffffffffffffffffffffffffffffff1681526020018381526020018267ffffffffffffffff16815250600080600160009054906101000a900463ffffffff1663ffffffff1663ffffffff16815260200190815260200160002060008201518160000160006101000a81548173ffffffffffffffffffffffffffffffffffffffff021916908373ffffffffffffffffffffffffffffffffffffffff160217905550602082015181600101908051906020019061014392919061043d565b5060408201518160020160006101000a81548167ffffffffffffffff021916908367ffffffffffffffff1602179055509050507f661193a341c42a9e62bd17e8189199ba02782715b11fe13fa6bb368de373166c600080600160009054906101000a900463ffffffff1663ffffffff1663ffffffff1681526020019081526020016000206040516101d49190610b34565b60405180910390a16001600081819054906101000a900463ffffffff16809291906101fe90610b95565b91906101000a81548163ffffffff021916908363ffffffff16021790555050505050565b60606000600160009054906101000a900463ffffffff1663ffffffff1667ffffffffffffffff811115610258576102576105ae565b5b60405190808252806020026020018201604052801561029157816020015b61027e6104c3565b8152602001906001900390816102765790505b50905060005b600160009054906101000a900463ffffffff1663ffffffff168163ffffffff161015610435576000808263ffffffff1663ffffffff1681526020019081526020016000206040518060600160405290816000820160009054906101000a900473ffffffffffffffffffffffffffffffffffffffff1673ffffffffffffffffffffffffffffffffffffffff1673ffffffffffffffffffffffffffffffffffffffff16815260200160018201805461034c906109d8565b80601f0160208091040260200160405190810160405280929190818152602001828054610378906109d8565b80156103c55780601f1061039a576101008083540402835291602001916103c5565b820191906000526020600020905b8154815290600101906020018083116103a857829003601f168201915b505050505081526020016002820160009054906101000a900467ffffffffffffffff1667ffffffffffffffff1667ffffffffffffffff1681525050828263ffffffff168151811061041957610418610bc2565b5b60200260200101819052508061042e90610b95565b9050610297565b508091505090565b828054610449906109d8565b90600052602060002090601f01602090048101928261046b57600085556104b2565b82601f1061048457805160ff19168380011785556104b2565b828001600101855582156104b2579182015b828111156104b1578251825591602001919060010190610496565b5b5090506104bf9190610504565b5090565b6040518060600160405280600073ffffffffffffffffffffffffffffffffffffffff16815260200160608152602001600067ffffffffffffffff1681525090565b5b8082111561051d576000816000905550600101610505565b5090565b6000604051905090565b600080fd5b600080fd5b600073ffffffffffffffffffffffffffffffffffffffff82169050919050565b600061056082610535565b9050919050565b61057081610555565b811461057b57600080fd5b50565b60008135905061058d81610567565b92915050565b600080fd5b600080fd5b6000601f19601f8301169050919050565b7f4e487b7100000000000000000000000000000000000000000000000000000000600052604160045260246000fd5b6105e68261059d565b810181811067ffffffffffffffff82111715610605576106046105ae565b5b80604052505050565b6000610618610521565b905061062482826105dd565b919050565b600067ffffffffffffffff821115610644576106436105ae565b5b61064d8261059d565b9050602081019050919050565b82818337600083830152505050565b600061067c61067784610629565b61060e565b90508281526020810184848401111561069857610697610598565b5b6106a384828561065a565b509392505050565b600082601f8301126106c0576106bf610593565b5b81356106d0848260208601610669565b91505092915050565b600067ffffffffffffffff82169050919050565b6106f6816106d9565b811461070157600080fd5b50565b600081359050610713816106ed565b92915050565b6000806000606084860312156107325761073161052b565b5b60006107408682870161057e565b935050602084013567ffffffffffffffff81111561076157610760610530565b5b61076d868287016106ab565b925050604061077e86828701610704565b9150509250925092565b600081519050919050565b600082825260208201905092915050565b6000819050602082019050919050565b6107bd81610555565b82525050565b600081519050919050565b600082825260208201905092915050565b60005b838110156107fd5780820151818401526020810190506107e2565b8381111561080c576000848401525b50505050565b600061081d826107c3565b61082781856107ce565b93506108378185602086016107df565b6108408161059d565b840191505092915050565b610854816106d9565b82525050565b600060608301600083015161087260008601826107b4565b506020830151848203602086015261088a8282610812565b915050604083015161089f604086018261084b565b508091505092915050565b60006108b6838361085a565b905092915050565b6000602082019050919050565b60006108d682610788565b6108e08185610793565b9350836020820285016108f2856107a4565b8060005b8581101561092e578484038952815161090f85826108aa565b945061091a836108be565b925060208a019950506001810190506108f6565b50829750879550505050505092915050565b6000602082019050818103600083015261095a81846108cb565b905092915050565b60008160001c9050919050565b600073ffffffffffffffffffffffffffffffffffffffff82169050919050565b60006109a261099d83610962565b61096f565b9050919050565b7f4e487b7100000000000000000000000000000000000000000000000000000000600052602260045260246000fd5b600060028204905060018216806109f057607f821691505b60208210811415610a0457610a036109a9565b5b50919050565b60008190508160005260206000209050919050565b60008154610a2c816109d8565b610a3681866107ce565b94506001821660008114610a515760018114610a6357610a96565b60ff1983168652602086019350610a96565b610a6c85610a0a565b60005b83811015610a8e57815481890152600182019150602081019050610a6f565b808801955050505b50505092915050565b600067ffffffffffffffff82169050919050565b6000610ac6610ac183610962565b610a9f565b9050919050565b6000606083016000808401549050610ae48161098f565b610af160008701826107b4565b50600184018583036020870152610b088382610a1f565b92505060028401549050610b1b81610ab3565b610b28604087018261084b565b50819250505092915050565b60006020820190508181036000830152610b4e8184610acd565b905092915050565b7f4e487b7100000000000000000000000000000000000000000000000000000000600052601160045260246000fd5b600063ffffffff82169050919050565b6000610ba082610b85565b915063ffffffff821415610bb757610bb6610b56565b5b600182019050919050565b7f4e487b7100000000000000000000000000000000000000000000000000000000600052603260045260246000fdfea2646970667358221220762c1214f569b56d14a4cfa172bfb7b2570cd26fe57df0eda099bc96f6a1111364736f6c634300080a0033",
  "linkReferences": {},
  "deployedLinkReferences": {}
}